{
    "contractName": "Wet",
    "abi": [
        {
            "inputs": [
                {
                    "internalType": "address",
                    "name": "owner_",
                    "type": "address"
                },
                {
                    "internalType": "uint256",
                    "name": "initialSupply",
                    "type": "uint256"
                }
            ],
            "stateMutability": "nonpayable",
            "type": "constructor"
        },
        {
            "anonymous": false,
            "inputs": [
                {
                    "indexed": true,
                    "internalType": "address",
                    "name": "owner",
                    "type": "address"
                },
                {
                    "indexed": true,
                    "internalType": "address",
                    "name": "spender",
                    "type": "address"
                },
                {
                    "indexed": false,
                    "internalType": "uint256",
                    "name": "value",
                    "type": "uint256"
                }
            ],
            "name": "Approval",
            "type": "event"
        },
        {
            "anonymous": false,
            "inputs": [
                {
                    "indexed": true,
                    "internalType": "address",
                    "name": "from",
                    "type": "address"
                },
                {
                    "indexed": true,
                    "internalType": "address",
                    "name": "to",
                    "type": "address"
                },
                {
                    "indexed": false,
                    "internalType": "uint256",
                    "name": "value",
                    "type": "uint256"
                }
            ],
            "name": "Transfer",
            "type": "event"
        },
        {
            "inputs": [
                {
                    "internalType": "address",
                    "name": "owner",
                    "type": "address"
                },
                {
                    "internalType": "address",
                    "name": "spender",
                    "type": "address"
                }
            ],
            "name": "allowance",
            "outputs": [
                {
                    "internalType": "uint256",
                    "name": "",
                    "type": "uint256"
                }
            ],
            "stateMutability": "view",
            "type": "function"
        },
        {
            "inputs": [
                {
                    "internalType": "address",
                    "name": "spender",
                    "type": "address"
                },
                {
                    "internalType": "uint256",
                    "name": "amount",
                    "type": "uint256"
                }
            ],
            "name": "approve",
            "outputs": [
                {
                    "internalType": "bool",
                    "name": "",
                    "type": "bool"
                }
            ],
            "stateMutability": "nonpayable",
            "type": "function"
        },
        {
            "inputs": [
                {
                    "internalType": "address",
                    "name": "account",
                    "type": "address"
                }
            ],
            "name": "balanceOf",
            "outputs": [
                {
                    "internalType": "uint256",
                    "name": "",
                    "type": "uint256"
                }
            ],
            "stateMutability": "view",
            "type": "function"
        },
        {
            "inputs": [],
            "name": "decimals",
            "outputs": [
                {
                    "internalType": "uint8",
                    "name": "",
                    "type": "uint8"
                }
            ],
            "stateMutability": "view",
            "type": "function"
        },
        {
            "inputs": [
                {
                    "internalType": "address",
                    "name": "spender",
                    "type": "address"
                },
                {
                    "internalType": "uint256",
                    "name": "subtractedValue",
                    "type": "uint256"
                }
            ],
            "name": "decreaseAllowance",
            "outputs": [
                {
                    "internalType": "bool",
                    "name": "",
                    "type": "bool"
                }
            ],
            "stateMutability": "nonpayable",
            "type": "function"
        },
        {
            "inputs": [],
            "name": "deposit",
            "outputs": [],
            "stateMutability": "payable",
            "type": "function"
        },
        {
            "inputs": [
                {
                    "internalType": "address",
                    "name": "spender",
                    "type": "address"
                },
                {
                    "internalType": "uint256",
                    "name": "addedValue",
                    "type": "uint256"
                }
            ],
            "name": "increaseAllowance",
            "outputs": [
                {
                    "internalType": "bool",
                    "name": "",
                    "type": "bool"
                }
            ],
            "stateMutability": "nonpayable",
            "type": "function"
        },
        {
            "inputs": [],
            "name": "name",
            "outputs": [
                {
                    "internalType": "string",
                    "name": "",
                    "type": "string"
                }
            ],
            "stateMutability": "view",
            "type": "function"
        },
        {
            "inputs": [],
            "name": "symbol",
            "outputs": [
                {
                    "internalType": "string",
                    "name": "",
                    "type": "string"
                }
            ],
            "stateMutability": "view",
            "type": "function"
        },
        {
            "inputs": [],
            "name": "totalSupply",
            "outputs": [
                {
                    "internalType": "uint256",
                    "name": "",
                    "type": "uint256"
                }
            ],
            "stateMutability": "view",
            "type": "function"
        },
        {
            "inputs": [
                {
                    "internalType": "address",
                    "name": "recipient",
                    "type": "address"
                },
                {
                    "internalType": "uint256",
                    "name": "amount",
                    "type": "uint256"
                }
            ],
            "name": "transfer",
            "outputs": [
                {
                    "internalType": "bool",
                    "name": "",
                    "type": "bool"
                }
            ],
            "stateMutability": "nonpayable",
            "type": "function"
        },
        {
            "inputs": [
                {
                    "internalType": "address",
                    "name": "sender",
                    "type": "address"
                },
                {
                    "internalType": "address",
                    "name": "recipient",
                    "type": "address"
                },
                {
                    "internalType": "uint256",
                    "name": "amount",
                    "type": "uint256"
                }
            ],
            "name": "transferFrom",
            "outputs": [
                {
                    "internalType": "bool",
                    "name": "",
                    "type": "bool"
                }
            ],
            "stateMutability": "nonpayable",
            "type": "function"
        }
    ],
    "bytecode": "608060405234801561001057600080fd5b50604051610b41380380610b4183398101604081905261002f9161013e565b6040518060400160405280600d81526020016c2bb930b83832b21022ba3432b960991b8152506040518060400160405280600381526020016215d15560ea1b81525081600390805190602001906100879291906100a5565b50805161009b9060049060208401906100a5565b50505050506101b3565b8280546100b190610178565b90600052602060002090601f0160209004810192826100d35760008555610119565b82601f106100ec57805160ff1916838001178555610119565b82800160010185558215610119579182015b828111156101195782518255916020019190600101906100fe565b50610125929150610129565b5090565b5b80821115610125576000815560010161012a565b6000806040838503121561015157600080fd5b82516001600160a01b038116811461016857600080fd5b6020939093015192949293505050565b600181811c9082168061018c57607f821691505b602082108114156101ad57634e487b7160e01b600052602260045260246000fd5b50919050565b61097f806101c26000396000f3fe6080604052600436106100a75760003560e01c806370a082311161006457806370a082311461018257806395d89b41146101b8578063a457c2d7146101cd578063a9059cbb146101ed578063d0e30db01461020d578063dd62ed3e1461020f57600080fd5b806306fdde03146100ac578063095ea7b3146100d757806318160ddd1461010757806323b872dd14610126578063313ce567146101465780633950935114610162575b600080fd5b3480156100b857600080fd5b506100c1610255565b6040516100ce9190610874565b60405180910390f35b3480156100e357600080fd5b506100f76100f236600461084a565b6102e7565b60405190151581526020016100ce565b34801561011357600080fd5b506002545b6040519081526020016100ce565b34801561013257600080fd5b506100f761014136600461080e565b6102fd565b34801561015257600080fd5b50604051601281526020016100ce565b34801561016e57600080fd5b506100f761017d36600461084a565b6103b3565b34801561018e57600080fd5b5061011861019d3660046107b9565b6001600160a01b031660009081526020819052604090205490565b3480156101c457600080fd5b506100c16103ea565b3480156101d957600080fd5b506100f76101e836600461084a565b6103f9565b3480156101f957600080fd5b506100f761020836600461084a565b610494565b005b34801561021b57600080fd5b5061011861022a3660046107db565b6001600160a01b03918216600090815260016020908152604080832093909416825291909152205490565b606060038054610264906108f8565b80601f0160208091040260200160405190810160405280929190818152602001828054610290906108f8565b80156102dd5780601f106102b2576101008083540402835291602001916102dd565b820191906000526020600020905b8154815290600101906020018083116102c057829003601f168201915b5050505050905090565b60006102f43384846104a1565b50600192915050565b600061030a8484846105c5565b6001600160a01b0384166000908152600160209081526040808320338452909152902054828110156103945760405162461bcd60e51b815260206004820152602860248201527f45524332303a207472616e7366657220616d6f756e74206578636565647320616044820152676c6c6f77616e636560c01b60648201526084015b60405180910390fd5b6103a885336103a386856108e1565b6104a1565b506001949350505050565b3360008181526001602090815260408083206001600160a01b038716845290915281205490916102f49185906103a39086906108c9565b606060048054610264906108f8565b3360009081526001602090815260408083206001600160a01b03861684529091528120548281101561047b5760405162461bcd60e51b815260206004820152602560248201527f45524332303a2064656372656173656420616c6c6f77616e63652062656c6f77604482015264207a65726f60d81b606482015260840161038b565b61048a33856103a386856108e1565b5060019392505050565b60006102f43384846105c5565b6001600160a01b0383166105035760405162461bcd60e51b8152602060048201526024808201527f45524332303a20617070726f76652066726f6d20746865207a65726f206164646044820152637265737360e01b606482015260840161038b565b6001600160a01b0382166105645760405162461bcd60e51b815260206004820152602260248201527f45524332303a20617070726f766520746f20746865207a65726f206164647265604482015261737360f01b606482015260840161038b565b6001600160a01b0383811660008181526001602090815260408083209487168084529482529182902085905590518481527f8c5be1e5ebec7d5bd14f71427d1e84f3dd0314c0f7b2291e5b200ac8c7c3b925910160405180910390a3505050565b6001600160a01b0383166106295760405162461bcd60e51b815260206004820152602560248201527f45524332303a207472616e736665722066726f6d20746865207a65726f206164604482015264647265737360d81b606482015260840161038b565b6001600160a01b03821661068b5760405162461bcd60e51b815260206004820152602360248201527f45524332303a207472616e7366657220746f20746865207a65726f206164647260448201526265737360e81b606482015260840161038b565b6001600160a01b038316600090815260208190526040902054818110156107035760405162461bcd60e51b815260206004820152602660248201527f45524332303a207472616e7366657220616d6f756e7420657863656564732062604482015265616c616e636560d01b606482015260840161038b565b61070d82826108e1565b6001600160a01b0380861660009081526020819052604080822093909355908516815290812080548492906107439084906108c9565b92505081905550826001600160a01b0316846001600160a01b03167fddf252ad1be2c89b69c2b068fc378daa952ba7f163c4a11628f55a4df523b3ef8460405161078f91815260200190565b60405180910390a350505050565b80356001600160a01b03811681146107b457600080fd5b919050565b6000602082840312156107cb57600080fd5b6107d48261079d565b9392505050565b600080604083850312156107ee57600080fd5b6107f78361079d565b91506108056020840161079d565b90509250929050565b60008060006060848603121561082357600080fd5b61082c8461079d565b925061083a6020850161079d565b9150604084013590509250925092565b6000806040838503121561085d57600080fd5b6108668361079d565b946020939093013593505050565b600060208083528351808285015260005b818110156108a157858101830151858201604001528201610885565b818111156108b3576000604083870101525b50601f01601f1916929092016040019392505050565b600082198211156108dc576108dc610933565b500190565b6000828210156108f3576108f3610933565b500390565b600181811c9082168061090c57607f821691505b6020821081141561092d57634e487b7160e01b600052602260045260246000fd5b50919050565b634e487b7160e01b600052601160045260246000fdfea2646970667358221220392c9588e5fbf911e7cdfba0b148a5beec14821397b12fe082b056eedc775d4264736f6c63430008060033",
    "sourcePath": "/home/enima/wet-hardhat/contracts/Wet.sol",
    "compiler": {
        "name": "solc",
        "version": "0.8.6+commit.11564f7e"
    },
    "functionHashes": {
        "allowance(address,address)": "dd62ed3e",
        "approve(address,uint256)": "095ea7b3",
        "balanceOf(address)": "70a08231",
        "decimals()": "313ce567",
        "decreaseAllowance(address,uint256)": "a457c2d7",
        "deposit()": "d0e30db0",
        "increaseAllowance(address,uint256)": "39509351",
        "name()": "06fdde03",
        "symbol()": "95d89b41",
        "totalSupply()": "18160ddd",
        "transfer(address,uint256)": "a9059cbb",
        "transferFrom(address,address,uint256)": "23b872dd"
    },
    "gasEstimates": {
        "creation": {
            "codeDepositCost": "486200",
            "executionCost": "infinite",
            "totalCost": "infinite"
        },
        "external": {
            "allowance(address,address)": "infinite",
            "approve(address,uint256)": "24619",
            "balanceOf(address)": "2540",
            "decimals()": "266",
            "decreaseAllowance(address,uint256)": "26990",
            "deposit()": "184",
            "increaseAllowance(address,uint256)": "27045",
            "name()": "infinite",
            "symbol()": "infinite",
            "totalSupply()": "2326",
            "transfer(address,uint256)": "51295",
            "transferFrom(address,address,uint256)": "infinite"
        }
    }
}